0100782467603    206065700         5        1117042020                                                                                                                                                                                                                                                                                                                                                                                                                                                                                                                                                                            
0200763345882AIKE SEGURIDAD EIRL                                                                                                          B1     25000000150420200703700068258685              FC Num: 0000089254                46 0                                                                                  S                                                                      00763345882AIKE SEGURIDAD EIRL                                         10   0                                                                                                                                0   0                  
0346 00000892540  0000005000000000000500000008102019                                                                                                                                                                                                                                                                                                                                                                                                                                                                                                                                                                              
0346 00000927830  0000005000000000000500000004022020                                                                                                                                                                                                                                                                                                                                                                                                                                                                                                                                                                              
0346 00000928080  0000015000000000001500000005022020                                                                                                                                                                                                                                                                                                                                                                                                                                                                                                                                                                              
0346 00000934690  0000005000000000000500000003032020                                                                                                                                                                                                                                                                                                                                                                                                                                                                                                                                                                              
0346 00000948770  0000005000000000000500000001042020                                                                                                                                                                                                                                                                                                                                                                                                                                                                                                                                                                              
0200766940625CONTRATISTA JAIRO A L  VALENZUELA EIRL                                                                                       B1     15000000150420200703700073761840              FC Num: 0000089030                46 0                                                                                  S                                                                      00766940625CONTRATISTA JAIRO A L  VALENZUELA EIRL                      10   0                                                                                                                                0   0                  
0346 00000890300  0000010000000000001000000002102019                                                                                                                                                                                                                                                                                                                                                                                                                                                                                                                                                                              
0346 00000890860  0000005000000000000500000002102019                                                                                                                                                                                                                                                                                                                                                                                                                                                                                                                                                                              
0346 00000893680  0000005000000000000500000015102019                                                                                                                                                                                                                                                                                                                                                                                                                                                                                                                                                                              
0346 00000902430  0000005000000000000500000012112019                                                                                                                                                                                                                                                                                                                                                                                                                                                                                                                                                                              
0346 00000924490  0000005000000000000500000028012020                                                                                                                                                                                                                                                                                                                                                                                                                                                                                                                                                                              
0200136235966ANTONIO AYALA AGUILAR                                                                                                        B1    141065700150420200701200055171584310           FC Num: 0000094894                46 0                                                                                  S                                                                      00136235966ANTONIO AYALA AGUILAR                                       10   0                                                                                                                                0   0                  
0346 00000948940  0000141065700000014106570007042020                                                                                                                                                                                                                                                                                                                                                                                                                                                                                                                                                                              
04                                                                                                                                                                                                                                                                                                                                  00001                                                                                                                                                                                                                                                                                         
