0100782467603   1968987800        21        24                                                                                                                                                                                                                                                                                                                                                                                                                                                                                                                                                                                    
0200105632479OMAR SANDOVAL RIVERS                                                                                                         B1      962000015122017010010002000753801            FC Num: 0000002521                33 0                                                                                  S                                                                      00105632479OMAR SANDOVAL RIVERS                                        10   0         reproplano@gmail.com                                                                                                   0   0                  
0330 00000025210  0000009620000000000962000030112017                                                                                                                                                                                                                                                                                                                                                                                                                                                                                                                                                                              
0200112856544JUAN JAQUE ESPINOZA                                                                                                          B1      65450001512201701001000                      FC Num: 0000000044                33 0                                                                                  S                                                                      00112856544JUAN JAQUE ESPINOZA                                         10   0         reproplano@gmail.com                                                                                                   0   0                  
0330 00000000440  0000006545000000000654500028112017                                                                                                                                                                                                                                                                                                                                                                                                                                                                                                                                                                              
0200043607944MARIA PERUCHA GOMEZ                                                                                                          B1    11075790015122017070370000513978883            FC Num: 0000008411                33 0                                                                                  S                                                                      00043607944MARIA PERUCHA GOMEZ                                         10   0         info@pinturasmerbella.cl                                                                                               0   0                  
0330 00000084110  0000110757900000011075790030112017                                                                                                                                                                                                                                                                                                                                                                                                                                                                                                                                                                              
020076072694KCOMERCIAL SOLUEX SPA.                                                                                                        B1     10542200151220170701600081610025              FC Num: 0000154107                33 0                                                                                  S                                                                      0076072694KCOMERCIAL SOLUEX SPA.                                       10   0         ASITENTECOBRANZA@SOLUEX.COM                                                                                            0   0                  
0330 00001541070  0000010542200000001054220030112017                                                                                                                                                                                                                                                                                                                                                                                                                                                                                                                                                                              
0200771495508INMOBILIARIA LOS ALEDANOS LTDA.                                                                                              B1     7080500015122017070390008342386               FC Num: 0000000198                33 0                                                                                  S                                                                      00771495508INMOBILIARIA LOS ALEDANOS LTDA.                             10   0         FERNANDOMOLLERU@GMAIL.COM                                                                                              0   0                  
0330 00000001980  0000070805000000007080500028112017                                                                                                                                                                                                                                                                                                                                                                                                                                                                                                                                                                              
0200778894203SERVICIO DIGITAL LTDA                                                                                                        B1      528120015122017010010002170251100            FC Num: 0000003254                33 0                                                                                  S                                                                      00778894203SERVICIO DIGITAL LTDA                                       10   0         MNRIQUELME@YAHOO.ES                                                                                                    0   0                  
0330 00000032540  0000005281200000000528120030112017                                                                                                                                                                                                                                                                                                                                                                                                                                                                                                                                                                              
0200784101606JUAN OLALDE E HIJOS LTDA.                                                                                                    B1      59500001512201707037000000006342507652       FC Num: 0000105806                33 0                                                                                  S                                                                      00784101606JUAN OLALDE E HIJOS LTDA.                                   10   0         jolade@123.cl                                                                                                          0   0                  
0330 00001058060  0000005950000000000595000030112017                                                                                                                                                                                                                                                                                                                                                                                                                                                                                                                                                                              
0200785545206CHILEMAQ CENTRO SPA                                                                                                          B1       71400015122017070370001674455               FC Num: 0000048027                33 0                                                                                  S                                                                      00785545206CHILEMAQ CENTRO SPA                                         10   0         tbustos@chilemaq.cl                                                                                                    0   0                  
0330 00000480270  0000000714000000000071400027112017                                                                                                                                                                                                                                                                                                                                                                                                                                                                                                                                                                              
0200786103606COM. E INDUSTRIAL NOVA SEGURIDAD LTDA                                                                                        B1      1755300151220170701600012377945              FC Num: 0000754230                33 0                                                                                  S                                                                      00786103606COM. E INDUSTRIAL NOVA SEGURIDAD LTDA                       10   0         COBRANZASCONCEPCION@NOVASEGURIDAD.CL                                                                                   0   0                  
0330 00007542300  0000001755300000000175530030112017                                                                                                                                                                                                                                                                                                                                                                                                                                                                                                                                                                              
0200788740905PERI CHILE LIMITADA                                                                                                          B1     79403700151220170703700002842971              FC Num: 0000629256                33 0                                                                                  S                                                                      00788740905PERI CHILE LIMITADA                                         10   0         natalia.hernandez@peri.cl                                                                                              0   0                  
0330 00006292560  0000079403700000007940370030112017                                                                                                                                                                                                                                                                                                                                                                                                                                                                                                                                                                              
0200799837900MULTICOMERCIAL CHILLAN LTDA.                                                                                                 B1      35569001512201707014000970175612             FC Num: 0000011211                33 0                                                                                  S                                                                      00799837900MULTICOMERCIAL CHILLAN LTDA.                                10   0         teresa@multicomercial.cl                                                                                               0   0                  
0330 00000112110  0000003556900000000355690029112017                                                                                                                                                                                                                                                                                                                                                                                                                                                                                                                                                                              
0200804098003ELECTRICIDAD GOBANTES S.A.                                                                                                   B1    178453100151220170701600011369621              FC Num: 0004052132                33 0                                                                                  S                                                                      00804098003ELECTRICIDAD GOBANTES S.A.                                  10   0         nelson.munoz@gobantes.cl                                                                                               0   0                  
0330 00040521320  0000143047500000014304750030112017                                                                                                                                                                                                                                                                                                                                                                                                                                                                                                                                                                              
0330 00040521330  0000035405600000003540560030112017                                                                                                                                                                                                                                                                                                                                                                                                                                                                                                                                                                              
0200861178005GRUAS Y EQUIPOS CRUZ DEL SUR S.A                                                                                             B1     50657300151220170703700002711257              FC Num: 0000044829                33 0                                                                                  S                                                                      00861178005GRUAS Y EQUIPOS CRUZ DEL SUR S.A                            10   0         cobranzas@gruasyequipos.cl                                                                                             0   0                  
0330 00000448290  0000050657300000005065730007122017                                                                                                                                                                                                                                                                                                                                                                                                                                                                                                                                                                              
0200891250002RENATO DIAZ S.A.                                                                                                             B1      35955001512201707037000000006300098418       FC Num: 0001242661                33 0                                                                                  S                                                                      00891250002RENATO DIAZ S.A.                                            10   0         CSANMARTIN@FERRETERIAMADRID.CL                                                                                         0   0                  
0330 00012426610  0000003595500000000359550030112017                                                                                                                                                                                                                                                                                                                                                                                                                                                                                                                                                                              
0200967239607COMET LTDA.                                                                                                                  B1     1444240015122017070370007401091070            FC Num: 0000001737                33 0                                                                                  S                                                                      00967239607COMET LTDA.                                                 10   0         LPINO@VENTAS.COMET.CL                                                                                                  0   0                  
0330 00000017370  0000014442400000001444240030112017                                                                                                                                                                                                                                                                                                                                                                                                                                                                                                                                                                              
0200967880507AISLAPANEL S.A.                                                                                                              B1     26537000151220170701600027069192              FC Num: 0000085530                33 0                                                                                  S                                                                      00967880507AISLAPANEL S.A.                                             10   0         COBRANZA@AISLAPANEL.CL                                                                                                 0   0                  
0330 00000855300  0000026537000000002653700030112017                                                                                                                                                                                                                                                                                                                                                                                                                                                                                                                                                                              
0200968159305CIC MUEBLES Y COMPONENTES S.A.                                                                                               B1   122032800015122017010010001454008               FC Num: 0000040732                33 0                                                                                  S                                                                      00968159305CIC MUEBLES Y COMPONENTES S.A.                              10   0         karina.fredes@cic.cl                                                                                                   0   0                  
0330 00000407320  0000641651600000064165160030112017                                                                                                                                                                                                                                                                                                                                                                                                                                                                                                                                                                              
0330 00000407330  0000578676400000057867640030112017                                                                                                                                                                                                                                                                                                                                                                                                                                                                                                                                                                              
0200968241109DISAL CHILE LTDA.                                                                                                            B1     1499400015122017010010001780087808            FC Num: 0000640762                33 0                                                                                  S                                                                      00968241109DISAL CHILE LTDA.                                           10   0         jcarvajal@disal.cl                                                                                                     0   0                  
0330 00006407620  0000014994000000001499400020112017                                                                                                                                                                                                                                                                                                                                                                                                                                                                                                                                                                              
0200968431307KOMATSU CHILE S.A.                                                                                                           B1     7308650015122017010010001870152404            FC Num: 0000591654                33 0                                                                                  S                                                                      00968431307KOMATSU CHILE S.A.                                          10   0         JARUIZ@KCL.CL                                                                                                          0   0                  
0330 00005916540  0000073086500000007308650029112017                                                                                                                                                                                                                                                                                                                                                                                                                                                                                                                                                                              
0200995140705SURGRAFIC S.A.                                                                                                               B1      2997000151220170701600044064136              FC Num: 0000006417                33 0                                                                                  S                                                                      00995140705SURGRAFIC S.A.                                              10   0         ADMINISTRACION@SURGRAFIC.CL                                                                                            0   0                  
0330 00000064170  0000002997000000000299700030112017                                                                                                                                                                                                                                                                                                                                                                                                                                                                                                                                                                              
0200995392208ECOMAULE S.A.                                                                                                                B1     7896580015122017070370003732452               FC Num: 0000004574                33 0                                                                                  S                                                                      00995392208ECOMAULE S.A.                                               10   0         info@ecomaule.com                                                                                                      0   0                  
0330 00000045740  0000038083800000003808380030112017                                                                                                                                                                                                                                                                                                                                                                                                                                                                                                                                                                              
0330 00000045750  0000040882000000004088200030112017                                                                                                                                                                                                                                                                                                                                                                                                                                                                                                                                                                              
04                                                                                                                                                                                                                                                                                                                                  00001                                                                                                                                                                                                                                                                                         
